:03000000021100EA
:0C110000787FE4F6D8FD7581A602114747
:1015500041542B4349504D55583D310D0A004154DB
:101560002B4349505345525645523D310D0A0041D7
:10157000542B43495053454E443D25642C32320D83
:021580000A005F
:10004600021900000114010212000002170000024A
:07005600150000021000007C
:091957008C128D138E178F1822DB
:091960008E158F168C108D1122DA
:10132300C28712188A1218091219DE12192E1219FD
:101333002212003F121774D2AF7BFF7A1579501235
:1013430014081218BF7BFF7A15795E12140812195C
:10135300B1C3E51A942CE5199401400AE4F519F593
:101363001AB2A5121025C3E51A9405E51994004095
:0D137300DDE51460D9E4F5141219A880D14D
:10102500E4F522F523F524F525F526F527F528F52C
:101035002912147A8E288F291214B28E228F231228
:1010450014E78E248F251213CB8E268F2712172196
:101055008E2A8F2B7BFF7A19795712118C752C3AB2
:10106500752D53E522F52E85232FE524F5308525AD
:1010750031E526F532852733E528F534852935AD63
:1010850029FCAF27AE26120DAE8F36E52AF537853A
:101095002B38E512F53985133AE517F53B85183CEC
:1010A500E515F53D85163EE510F53F851140754181
:1010B5000D7E007F127D007BFE7A0079001206D638
:1010C5007545FF75461575476FE4F548F5497BFE8F
:1010D5007A00790012075E7BFE7A0079007D127C2A
:1010E500001215E51218BF7B007A00792C7D167C5D
:0B10F500001215E5AF2BAE2A0213809D
:10138000E4F542AD07AC06120359E4FBFA79807824
:101390003D1201AE1203928E438F44E4F545F546AB
:1013A000E5426005E4F543F544D3E5449400E543A4
:1013B0009400400ED3E544940AE5439400500302A0
:0A13C00019D5E54424F6FF1215B418
:0113CA002200
:040DAE008C428D43A3
:100DB200AD07AC06E4120359E4FBFA7978784312E2
:100DC20001AEC004C005C006C007AC42AD43E41288
:100DD2000359A804A905AA06AB07D007D006D00577
:100DE200D0041202B7E4FBFA79A078C01200BD8FDA
:100DF2005B8E5A8D598C58E4FBFA79C878421202FC
:100E0200B7E4FBFA792078411202B7C004C005C0EA
:100E120006C007E4FBFA79C87842AF5BAE5AAD5917
:100E2200AC581202B7A804A905AA06AB07E4FFFE54
:100E32007DA07C401200B9D003D002D001D00012B4
:100E420002B78F4F8E4E8D4D8C4C7F007E007D20E1
:100E52007C41120F248F538E528D518C50AF4FAE66
:100E62004EAD4DAC4C120F24AB07AA06A905A8043F
:100E7200AF53AE52AD51AC501200B98F578E568D52
:100E8200558C547B007AE0797678451202B78F57F9
:100E92008E568D558C54754B0F754ACF75495B75BF
:100EA200483BAF4BAE4AAD49AC48AB57AA56A955E1
:100EB200A8541200B98F4B8E4A8D498C48AB4BAA6D
:100EC2004AA949A848E4FFFE7D807C3F1202B78F01
:100ED200478E468D458C447B337A93798878C3124A
:0D0EE20000BD8F478E468D458C4412039253
:010EEF0022E0
:03000B000218FBDD
:0D18FB00C0E0051AE51A70020519D0E032B0
:10188A00E4F5937594807591FCF592F5B1F5B2750E
:06189A00B31075B410222A
:1018090075A24043BA02759850759A5075AC107517
:10181900D78F75D6FD758E14438E01D2AC43AF199F
:01182900229C
:0719DE00759D3C7597202266
:0C192200538E7F758AE0758CB1D2A9222B
:03003F00D28C223E
:0E18B00000007F5C7E327DEEDDFEDEFCDFFAA6
:0118BE002207
:0619E50000007F2DDFFE73
:0119EB0022D9
:081969007F0C7E31DEFEDFFC85
:011971002253
:081972007F057EC6DEFEDFFCEE
:01197A00224A
:0619EC0000007F57DFFE42
:0119F20022D2
:08197B007F027E09DEFEDFFCA5
:011983002241
:081984007F017E92DEFEDFFC14
:01198C002238
:0E18BF0000007F027ED37DE7DDFEDEFCDFFA57
:0118CD0022F8
:08198D007F017EECDEFEDFFCB1
:01199500222F
:0619F30000007F09DFFE89
:0119F90022CB
:081996007F027E63DEFEDFFC30
:01199E002226
:08199F007F027EDBDEFEDFFCAF
:0119A700221D
:0E18CE0000007F037E487DA1DDFEDEFCDFFA18
:0118DC0022E9
:0619FA0000007F03DFFE88
:011A000022C3
:0D005D00011B00021E0000011C00011D001F
:030023000212C204
:0712C200C0E0C0D075D008A8
:1012C90030984AC298AF99C3E51F9414E51E94005B
:1012D9004006751E00751F00BF3B09751E00751F6E
:1012E90000751C01E51C6012E51D700E051FE51F48
:1012F9007002051E142475F8A60FBF0D10E51C60B9
:101309000C751D01751C00751E00751F00309905AF
:05131900C299751B00E4
:05131E00D0D0D0E03248
:0A193900E51B70FC751B018F99225D
:101408008B228A238924AB22AA23A92412060260EC
:10141800130524E5247002052314F9120602FF12AD
:10142800193980E2AB220524E524AA23700205239A
:0914380014F9120602FF02193931
:0A15E5008B428A4389448C458D46F1
:1015EF00E4FDFCC3ED9546EC95455018AB42AA437C
:1015FF00A9448D828C8312061BFF1219390DBD0071
:04160F00010C80DF6B
:0116130022B4
:10182A00E51D601B7B007A007975120B717E007FC3
:10183A00147D007B007A0079751206D6E4F51D2224
:10174B0041542B43495053544152543D225443501E
:10175B00222C223139322E3136382E33312E393478
:09176B00222C383038300D0A0040
:0D006A0001650002670000016900016600E9
:0300430002125F47
:07125F00C0E0C0D075D0080B
:10126600E59A30E047539AFEAF9BC3E568940FE5D5
:101276006794004006756700756800BF3B0975678F
:1012860000756800756901E569600E0568E56870B6
:10129600020567142489F8A60FBF0D10E569600CD6
:1012A600756601756900756700756800E59A30E135
:0712B60006539AFD75650067
:0512BD00D0D0D0E032AA
:0A194300E56570FC7565018F9B22BD
:10008E008B228A238924AB22AA23A924120602607A
:10009E00130524E5247002052314F9120602FF123B
:0500AE00194380E2226D
:0A1614008B608A6189628C638D642B
:10161E00E4FDFCC3ED9564EC95635018AB60AA61D4
:10162E00A9628D828C8312061BFF1219430DBD0019
:04163E00010C80DF3C
:011642002285
:10184A00E566601B7B007A007989120B717E007F46
:10185A000F7D007B007A0079891206D6E4F56622AC
:0919A8007BFF7A17794B02008ED7
:0D007700016A00026C0000016E00016B00C8
:03008B000211F867
:0711F800C0E0C0D075D00873
:1011FF00E5AC30E04B53ACFEAFADC3E56D9414E5F9
:10120F006C94004006756C00756D00BF3C09756CE1
:10121F0000756D00756E01E56E6012E56B700E0561
:10122F006DE56D7002056C142498F8A60FBF0D10B4
:10123F00E56E600C756B01756E00756C00756D0059
:0B124F00E5AC30E10653ACFD756A0011
:05125A00D0D0D0E0320D
:0A194D00E56A70FC756A018FAD2297
:1017C2008B6F8A708971AB6FAA70A9711206026061
:1017D200130571E5717002057014F9120602FF1209
:0517E200194D80E22218
:0A1643008B298A2A892B8C2C8D2D0F
:10164D00E4FDFCC3ED952DEC952C5018AB29AA2A81
:10165D00A92B8D828C8312061BFF12194D0DBD0017
:04166D00010C80DF0D
:011671002256
:10186A00E56B601B7B007A007998120B717E007F12
:10187A000F7D007B007A0079981206D6E4F56B2278
:0919B10012182A12184A02186AE1
:100B71008B228A238924120602643B6003020D5BE7
:100B8100120003AB22AA23A92490000112061B64C0
:100B91004A6003020C6890000212061B6453702520
:100BA10090000312061BB40104E4FF8015AB22AAD6
:100BB10023A92490000312061B64026003020DADF9
:100BC1007F0102000EAB22AA23A924900002120683
:100BD1001B6454702590000312061BB40104E4FF4A
:100BE1008015AB22AA23A92490000312061B6402DC
:100BF1006003020DAD7F010219BAAB22AA23A92419
:100C010090000212061B6455702590000312061B0A
:100C1100B40104E4FF8015AB22AA23A924900003A8
:100C210012061B64026003020DAD7F010219C3AB02
:100C310022AA23A92490000212061B645660030213
:100C41000DAD90000312061BB40104E4FF8015AB47
:100C510022AA23A92490000312061B640260030246
:100C61000DAD7F010219CCAB22AA23A9249000016A
:100C710012061B645A706490000212061BB45B08D2
:100C8100E4FF120088021908AB22AA23A9249000CC
:100C91000212061BB45C08E4FF1200880219D5ABEE
:100CA10022AA23A92490000212061BB45D15E4FFB9
:100CB100120088AB22AA23A92490000312061BFF6D
:100CC10002169FAB22AA23A92490000212061B64DC
:100CD1005E6003020DAD7F01020088AB22AA23A949
:100CE1002490000112061B646A70409000021206F3
:100CF1001BB46B1290000312061BB401047F018028
:100D0100027F021216CCAB22AA23A9249000021260
:100D1100061B646C6003020DAD90000312061BB448
:100D210001047F0180027F0202151CAB22AA23A9C4
:100D31002490000112061BB4E003021582AB22AA23
:100D410023A92490000112061BFF64CA605EEF64B0
:100D5100DD705912000375C76022AB22AA23A924B2
:100D6100120602643C704590000112061B641C705F
:010D71003B46
:100D720090000212061B752500F52690000412064B
:100D82001B752700F52890000312061BFDE526F5CA
:100D920025EDF52690000512061BFDE528F527ED49
:0B0DA200F528AC27AF26AE2512196023
:010DAD002223
:10000E00EF7008D2831218B0D28422C2841218B0B4
:03001E00C2832278
:0919BA00EF7003D28222C28222E6
:0919C300EF7003D28122C28122DF
:0919CC00EF7003D28022C28022D8
:1016CC007814743CF20874A0F2BF01047F0180020C
:1016DC007F027816EFF2087402F208740DF27BFEAA
:0B16EC007A0079147D057C0002164393
:10151C007814743CF20874A0F2BF01047E018002BE
:10152C007E027816EEF2BF01047F0180027F027802
:10153C0017EFF208740DF27BFE7A0079147D057CAE
:04154C000002164340
:101582001206027814F290000112061B7815F290EE
:10159200000212061B7816F290000312061B78173F
:1015A200F208740DF27BFE7A0079147D057C00024C
:0215B2001643DE
:08000300D2871218BFC2872248
:0B192E00E4F5BDF5BE75BCC00218B0AA
:0317E700E4FBFA26
:1017EA00E4F5BDF5BEEF44C8F5BC00000000E5BC59
:0E17FA0030E4FB53BCEFAFBDEFFEADBEEDFF24
:0118080022BD
:1014B2007F031217E77F031217EAEF2543F543EE86
:1014C2003542F5420BBB00010AEB64104A70E6AEEE
:1014D20042E5437804088005CEC313CE13D8F9FF42
:0414E2008E42F543FE
:0114E60022E3
:1014E7007F041217E77F041217EAEF2543F543EE4F
:1014F7003542F5420BBB00010AEB64104A70E6AEB9
:1015070042E5437804088005CEC313CE13D8F9FF0C
:041517008E42F543C8
:01151B0022AD
:1013CB00E4FBFA7F021217EA7F021217EA7F02127E
:1013DB0017EAEF2543F543EE3542F5420BBB00010F
:1013EB000AEB64404A70E6AE42E543780608800596
:0C13FB00CEC313CE13D8F9FF8E42F54389
:0114070022C2
:10147A00E4FBFA7F051217EA7F051217EAEF254304
:10148A00F543EE3542F5420BBB00010AEB64104A04
:10149A0070E6AE42E5437804088005CEC313CE1346
:0714AA00D8F9FF8E42F54363
:0114B1002218
:0F18DD00D2C41219F3C2C41218BFD2C402198D9B
:10144100E4F54BF54A754C9020C407AF4C154CEFB1
:1014510070F6121996E54B25E0F54B30C402054BA9
:10146100754C9030C407AF4C154CEF70F6054AE54A
:081471004AC3940840CFAF4BC1
:011479002250
:06118C008B428A438944F6
:101192001218DD20C45F12199F30C45912199F1210
:1011A20014418F481214418F491214418F46121470
:1011B200418F471214418F451218CED2C4E54825FB
:1011C20049FFE433FE7C00EF2546FFEC3EFEEF25AF
:1011D20047FFEC3EFEEF65457001EE7018AD48ED3D
:1011E200FCE549FDAF46EFFEE547FFE48544828515
:0511F20043831206D446
:0111F70022D5
:0F18EC00D2861219E5C286121969D286021972C4
:10002600E4F572F573C2861219E5D2861219ECA2AE
:0800360086920912197BA20950
:01003E00229F
:10167200E4F543F544754308C2861219FAE544C3FA
:1016820013F544D2861219E53086034344801219B9
:0C1692007B1543E543D3940050DEAF44C9
:01169E002229
:0216F7008F431F
:1016F900E4F544754408C2861219FAE54313928643
:1017090012197BD286E543C313F5431219E5154433
:07171900E544D3940050DF0A
:0117200022A6
:1018A0001218EC1219697FCC1216F77F440216F752
:101721001218EC7FCC1216F77F441216F71218EC40
:101731007FCC1216F77FBE1216F71216728F421265
:091741001672EFFEE542FDEDFF1A
:01174A00227C
:0300840001740103
:1017740043BA8075F10290FFF27408F090FFF074A0
:1017840040F0A3E4F090FF10F0A3F0A3740AF0A3D8
:07179400E4F0A37408F02249
:0D19080075F50243F54043F58053BA7F2288
:0919D500E4F5F553BA7FD2C522F6
:1015B4007DA37C00E5746028E5F5700975F50243A8
:1015C400F54043F580EFD3944B40027F4B43BA8000
:1015D4007E0012065A90FF12EEF0A3EFF053BA7F8A
:0115E40022E4
:10169F007DA37C00E5F5700975F50243F54043F530
:1016AF0080EFD3944B40027F4B43BA807E001206EB
:0C16BF005A90FF12EEF0A3EFF053BA7F38
:0116CB0022FC
:0300B3000219151A
:0D191500C0E0E5F630E60353F6BFD0E03247
:030088008F742250
:1000B6000203FEE86480F8E933E83360110460F077
:1000C600ED33EC337009E8FCE9FDEAFEEBFF2204B0
:1000D60060DED3EB9FEA9EE99DE8C2E78CF0C2F7AB
:1000E60095F0400CE8CCF8E9CDF9EACEFAEBCFFB77
:1000F6001203C985D0F05804700320D5B3E8047004
:10010600075002B2D502040892D5EC0460F7E4CC9D
:10011600C0E0C398F8603B94186008400DD0E0FB3F
:100126000203E0E4FBFAC9FC8028E830E406E4C9EF
:10013600FBE4CAFCE830E305E4C9CACBFCE8540793
:100146006010F8C3E913F9EA13FAEB13FBEC13FC9E
:10015600D8F130F52FC3E49CFCEF9BFFEE9AFEED41
:1001660099FDD0E0FBEF4E4D4C701222DB030204EA
:1001760005EC2CFCEF33FFEE33FEED33FDED30E7FF
:10018600EB0203E0EF2BFFEE3AFEED39FDD0E0FB8C
:1001960050130BBB0003020408ED13FDEE13FEEF34
:0801A60013FFEC13FC0203E05F
:1001AE00EC4D6011E8497017ED33EC3304600DE44B
:1001BE00FCFFFEFD22E933E8330470F80203FE1261
:1001CE0003C958046009E4CC248150062850090262
:1001DE000408284003020405C0E0EB4A7044B980CD
:1001EE0006D0E0FB0203F4EF4E701CBD8008EBFF5F
:1001FE00EAFEE9FD80EBE98DF0A4FEE5F002029740
:10020E00E9CDF9EAFEEBFFEF89F0A4FCE5F0CE892B
:10021E00F0A42EFFE435F0CD89F0A42DFEE435F0E8
:10022E008067EF4E7005BD80D780C3EF8BF0A4AC16
:10023E00F0EE8BF0A42CFCE435F0F8EF8AF0A42C51
:10024E00E5F038FCE433CB8DF0A42CFCE5F03BF864
:10025E00EE8AF0A42CFCE5F038F8E433CF89F0A454
:10026E002CFCE5F038CF3400CE89F0A42FFFE5F05A
:10027E003EFEE433C98DF0A42EFEE5F039CD8AF0B2
:10028E00A42FFFE5F03EFEE43DFD33D0E0FB50072A
:10029E000BBB000F020408EC2CFCEF33FFEE33FE19
:0602AE00ED33FD0203E048
:1002B400020408EC5D046005E8590470030203FEBF
:1002C4001203C9580460F6EC4860F2EC7004FDFEB9
:1002D400FF22C860DB2481C85009C398600250061D
:1002E4000204059850CAF582E9294B4A7005AB828D
:1002F4000203F475F0007C1A7880C3EF9BEE9AED4C
:1003040099400DC3EF9BFFEE9AFEED99FDE842F094
:10031400DC23ACF0D0E0FFD0E0FED0E0FDAB8220E7
:10032400E7101BEB60BAEC2CFCEF33FFEE33FEED71
:1003340033FD0203E0E803F830E705C0F075F00090
:10034400EF2FFFEE33FEED33FD40B830E7C280AA55
:1003540075F020800E75F010800575F0087D007E24
:10036400007F003392D530D50312066CEC33401075
:10037400EF33FFEE33FEED33FDEC33FCD5F0ED222D
:0E038400E5F0247EA2D513CC92E7CDCEFF2269
:10039200EDD2E7CD33EC3392D524814006E4FFFE63
:1003A200FDFC22FCE4CFCECDCC24E0501174FF80C2
:1003B200EDC3CC13CCCD13CDCE13CECF13CF04705F
:0703C200F030D5DE02066CED
:10070200E5592445F8E60559227842300702784532
:10071200E475F00112069A0206022000EB7F2ED247
:10072200008018EF540F2490D43440D4FF30040BCF
:10073200EF24BFB41A0050032461FFE55A6002158A
:100742005A055DE55D7002055C30070D7842E4757F
:10075200F00112069AEF02064802179B7403D207B1
:100762008003E4C207F5598B428A438944E4F55A6F
:10077200F55CF55DE55A60077F2012073D80F5754F
:100782005BFFC201C200C202C203C205C206C208A6
:1007920012070BFF700D3007057F0012074EAF5D89
:1007A200AE5C22B4255FC2D5C20412070BFF24D06F
:1007B200B40A00501A75F00A785A30D50508B6FF07
:1007C2000106C6A426F620D5047002D20380D924DD
:1007D200CFB41A00EF5004C2E5D204020A3BD201A0
:1007E20080C6D20080C0D20280BCD2D580BAD205E7
:1007F20080B47F2012073D2002077401B55A0040E1
:10080200F1120702FF12073D020776D208D20680D4
:1008120095120702FB120702FA120702F94A4B70FD
:100822000679327A0B7BFF20022EE55A602A7E007F
:100832008E8275830012061B60060EEE655B70F0F9
:10084200C2D5EBC0E0EAC0E0E9C0E0EE120A9BD0FC
:10085200E0F9D0E0FAD0E0FB120602FF60AAEBC09A
:10086200E0EAC0E0E9C0E012073DD0E02401F9D09F
:10087200E03400FAD0E0FBE55B0460DCD55BD980B4
:1008820087D20280A2120A7E60F7E55B7001041231
:100892000413A95B600DE55B600914F55B120B257F
:1008A200EF60F3EA30E702F404C3995077EAF425E3
:1008B2005B0430E701E404F55B800D120A7E60C13F
:1008C200EA055B255B120413EA7858F630E701E487
:1008D200255B04D55B0420050114120A9BE4C0E0E9
:1008E200120B257858E6601320E70714F612072545
:1008F200802204F6D0E014C0E07F00120725E55BF9
:10090200600712071C155B800B30050312071CD011
:10091200E0020776D0E00480C5120A7E60A0E55BA3
:10092200041204137858EAF6E55B2005026001041C
:050932002404120A9BE1
:1009370074FF04C0E0120B25120725E55B200502B2
:10094700600312071CD0E0B55BE87F4512072F78DC
:1009570058E67F2B30E7047F2DF404C0E012073DF3
:10096700D0E075F00A84C0F0120726D0E0120726FF
:10097700020776791080027908C206C2088008D279
:10098700D5790A8004790AC2D5E55B047002F55B64
:10099700E4FAFDFEFF120702FC7B08200113120791
:1009A70002FD7B1030000A120702FE120702FF7BCE
:1009B70020EC3382D592D55013C3E43000069FFF55
:1009C700E49EFEE42001039DFDE49CFCE4CBF8C219
:1009D70001EC700CCFCECDCCE824F8F870F380177B
:1009E700C3EF33FFEE33FEED33FDEC33FCEB33FBAC
:1009F700994002FB0FD8E9EB300105F8D0E0C44875
:100A0700B201C0E00AEC4D4E4F78207B0070C2EA7D
:100A1700B55B0040BCC0E0120A9DD0F0D0E02001D9
:100A270004C4C0E0C4B201C0F0120726D0F0D5F06C
:100A3700EB0207761206AA081353097A5807E44C03
:100A470007E042097E4F09864409864907F94309A9
:100A57008C5508BD46091B450887470B525007E8C8
:100A67002D07EC2E080F2B07F023080D200B3B2A30
:100A770007A84800000807E55BB4FF03755B06128B
:100A87000702FC120702FD120702FE120702FF7897
:100A970051020442790AA2D5200314300509B9107E
:100AA700020404B9080104A2D5200602500104205B
:100AB70002689202B55A005034C0E07F2030031913
:100AC7007F30A20272067205500F120AF4C202C2E8
:100AD70006C205C2087F30800F300503E9C0E01267
:100AE700073D300503D0E0F9D0E0B55ACC30051703
:100AF7007F30B9100C12073D7F583004077F78808C
:100B070003B9080312073D3002057F2D02073D7F19
:100B1700202008F87F2B2006F322920280CF7F0047
:100B2700B4070050052451F8E6FF22286E756C6C57
:100B37002900D2011207023001F8C201785A30D5D4
:100B47000108F60207A82D5043495812070224034B
:100B5700B405004001E4900B4D9312072E743A122E
:0A0B6700072ED203755A0402097A22
:100EF0003E9248DA3ECCCCCD3F2AAAAB400000005F
:100F00003F8000003F9837F03FB504F33FD744FCE3
:100F10003E3172173EB172173F0515913EDE5BD927
:100F2000D2008002C200EDD2E7F8CD33EC3304707A
:100F30000BBD800592D50204080203FE40FBD314CA
:100F400060F2F5F07C3FEE7A00C39496C8948B4033
:100F5000230AC89469C8941A401A0AC89468C894A5
:100F60001F40110AC8945AC89425400805F07A0019
:100F7000CDC2E7CDC0F08C5C8D5D8E5E8F5FEA23C5
:100F800023C0E02400F582E4340FF58312068A12B0
:100F900000BDECC0E0EDC0E0EEC0E0EFC0E0120646
:100FA0007AA85CA95DAA5EAB5F1200B9D0E0FBD065
:100FB000E0FAD0E0F9D0E0B2E7F81202B78C5C8D2D
:100FC0005D8E5E8F5F900EF07403120545A85CA9DC
:100FD0005DAA5EAB5F1201AED0E0600F240CF5821B
:100FE000E4340FF58312068A1200BD8C5C8D5D8E91
:100FF0005E8F5FD0E0C3947FFDE49400FC12035940
:101000007B187A727931783F1201AEA85CA95DAA8B
:101010005EAB5F1200BD30000B7BD97A5B79DE7866
:051020003E1201AE22AA
:1003C900E9D2E7C933E833F892D5EDD2E7CD33EC7A
:0703D90033FC5002B2D522F3
:1003E000EC30E7100FBF000C0EBE00080DBD00047E
:1003F0000BEB6014A2D5EB13FCED92E7FD2274FF2A
:10040000FCFDFEFF22E480F8A2D574FF13FC7D8082
:03041000E480EF96
:10041300F920E72824F950037907E4F42402FB18B0
:10042300DBFDE624FB5014E9600DE4F618E604F660
:0F043300B40A08E4F6D9F57401F60A22C2D522FC
:10044200ED33EC3392D5FA602AB4FF33EDC2E77B89
:10045200FF60067A047967E4227A04797020D50471
:100462007A04796B224E614E002B494E46002D498B
:100472004E4600E47A08F608DAFC7B00740722E8AC
:10048200C0E0ECC0E0EDC0E0EEC0E0EFC0E0EA7535
:10049200F010A4CAABF075F04DA42BFBE435F0FCD0
:1004A200EA2410FAEB34C5FBEC34D9FCEDC2E7FFC9
:1004B20075F056A4F42411C5F0F434C58FF0A42AC3
:1004C200E5F03BE43CF620E7141205C2D0E0FFD091
:1004D200E0FED0E0FDD0E0FC1202B78014F404127A
:1004E20005C2D0E0FFD0E0FED0E0FDD0E0FC12017A
:1004F200AED0E0F8E6FAEDD2E7CD33EC332482FB5E
:10050200E4C3CF33CFCE33CECD33CD33DBF37B0752
:1005120075F00A846004F6081B0AE5F0F6088FF00D
:10052200740AA4FFACF08EF0740AA42CFEACF05056
:10053200010C8DF0740AA42CFDE435F0F608DBDE24
:0305420074072219
:10054500C0E0EFFBEEFAEDF9ECF81201AED0E0F504
:10055500F0EFFBEEFAEDF9ECF812067AA3A3A3A3EC
:10056500E8C0E0E9C0E0EAC0E0EBC0E0C0F012019D
:10057500AE12068AA3A3A3A31200BDD0F0D0E0FB60
:0D058500D0E0FAD0E0F9D0E0F8D5F0D422B3
:100592003F8000004120000042C80000447A000071
:1005A200461C400047C35000497424004B189680F3
:1005B2004CBEBC205A0E1BCA6753C21C749DC5AEEA
:1005C200FB60065407601C23231205F0EB543860CD
:1005D200091205DC1205EB1201AEECF8EDF9EEFAA8
:1005E200EFCB22EB1205EB80F1543803241C90056B
:1005F20092FE93FC0EEE93FD0EEE930ECE93FF222F
:10110C00021323E493A3F8E493A34003F68001F2C3
:10111C0008DFF48029E493A3F85407240CC8C333E4
:10112C00C4540F4420C8834004F456800146F6DFB3
:10113C00E4800B0102040810204080900046E47EFD
:10114C00019360BCA3FF543F30E509541FFEE493A8
:10115C00A360010ECF54C025E060A840B8E493A36F
:10116C00FAE493A3F8E493A3C8C582C8CAC583CA9A
:10117C00F0A3C8C582C8CAC583CADFE9DEE780BE52
:010087000078
:10060200BB010689828A83E0225002E722BBFE02F6
:09061200E32289828A83E4932229
:10061B00BB010CE58229F582E5833AF583E0225094
:10062B0006E92582F8E622BBFE06E92582F8E222DE
:0D063B00E58229F582E5833AF583E49322F8
:10064800BB010689828A83F0225002F722BBFE0191
:02065800F3228B
:10065A00EF8DF0A4A8F0CF8CF0A428CE8DF0A42EB4
:02066A00FE226E
:0E066C00C3E49FFFE49EFEE49DFDE49CFC229F
:10067A00E493FC740193FD740293FE740393FF22C6
:10068A00E493F8740193F9740293FA740393FB22C6
:10069A00FAE6FB0808E6F925F0F618E6CA3AF62261
:1006AA00D083D082F8E4937012740193700DA3A3DF
:1006BA0093F8740193F5828883E4737402936860F3
:0606CA00EFA3A3A380DFF3
:0606D0008A838982E473B5
:10179B00EFB40A07740D1217A6740A309811A899A2
:1017AB00B8130CC2983098FDA899C298B811F630AE
:0717BB0099FDC299F5992286
:1006D600EF4E6012EF60010EEDBB010B89828A833B
:1006E600F0A3DFFCDEFA2289F05007F709DFFCA948
:0C06F600F022BBFEFCF309DFFCA9F0229F
:00000001FF
