:030000000209A052
:0C09A000787FE4F6D8FD7581A50209E718
:0F0C4E0002150000011201021000000213000045
:0910ED008C108D118E138F14225A
:100C0600C287121020120F9F1200831210C41210F6
:100C1600B812003F120F31D2AF12113EC3E516943F
:100C26002CE5159401400AE4F515F516B2A512094E
:100C360009C3E5169405E515940040DDE51260D973
:080C4600E4F51212113580D112
:10090900E4F521F522F523F524F525F526F527F556
:1009190028120CFA8E278F28120D328E218F22125F
:100929000D678E238F241200468E258F26120EDE28
:100939008E298F2A7BFF7A1079ED120A2C752B3AB2
:10094900752C53E521F52D85222EE523F52F8524D8
:1009590030E525F531852632E527F533852834AD8F
:1009690028FCAF26AE251206928F35E529F5368586
:100979002A37E510F538851139E513F53A85143B21
:10098900753C0D7B007A00792B7D127C00120E2BB1
:07099900AF2AAE29020BBBDF
:100BBB00E4F53DAD07AC06120359E4FBFA798078F6
:100BCB003D1201AE1203928E3E8F3FE4F540F5418C
:100BDB00E53D6005E4F53EF53FD3E53F9400E53E8A
:100BEB009400400ED3E53F940AE53E940050030277
:0A0BFB001162E53F24F6FF120D9C85
:010C050022CC
:040692008C3D8D3ED0
:10069600AD07AC06E4120359E4FBFA797878431205
:1006A60001AEC004C005C006C007AC3DAD3EE412B5
:1006B6000359A804A905AA06AB07D007D006D0059A
:1006C600D0041202B7E4FBFA79A078C01200BD8FFD
:1006D600568E558D548C53E4FBFA79C87842120233
:1006E600B7E4FBFA792078411202B7C004C005C00E
:1006F60006C007E4FBFA79C87842AF56AE55AD544A
:10070600AC531202B7A804A905AA06AB07E4FFFE7C
:100716007DA07C401200B9D003D002D001D00012D7
:1007260002B78F4A8E498D488C477F007E007D2018
:100736007C411208088F4E8E4D8D4C8C4BAF4AAEC5
:1007460049AD48AC47120808AB07AA06A905A80494
:10075600AF4EAE4DAD4CAC4B1200B98F528E518D93
:10076600508C4F7B007AE0797678451202B78F522B
:100776008E518D508C4F75460F7545CF75445B7500
:10078600433BAF46AE45AD44AC43AB52AA51A9502C
:10079600A84F1200B98F468E458D448C43AB46AAAE
:1007A60045A944A843E4FFFE7D807C3F1202B78F33
:1007B600428E418D408C3F7B337A93798878C31281
:0D07C60000BD8F428E418D408C3F1203928A
:0107D3002203
:03000B000210914F
:0D109100C0E00516E51670020515D0E0322E
:10102000E4F5937594807591FCF592F5B1F5B27580
:06103000B31075B410229C
:100F9F0075A24043BA02759850759A5075AC10758A
:100FAF00D78F75D6FD758E14438E01D2AC43AF1912
:010FBF00220F
:07008300759D3C75972022DA
:0C10B800538E7F758AE0758CB1D2A9229E
:03003F00D28C223E
:0E10460000007F5C7E327DEEDDFEDEFCDFFA18
:011054002279
:06116B0000007F2DDFFEF5
:01117100225B
:0810F6007F0C7E31DEFEDFFC01
:0110FE0022CF
:0810FF007F057EC6DEFEDFFC6A
:0111070022C5
:0611720000007F57DFFEC4
:011178002254
:081108007F027E09DEFEDFFC20
:0111100022BC
:081111007F017E92DEFEDFFC8F
:0111190022B3
:0E10550000007F027ED37DE7DDFEDEFCDFFAC9
:01106300226A
:08111A007F017EECDEFEDFFC2C
:0111220022AA
:0611790000007F09DFFE0B
:01117F00224D
:081123007F027E63DEFEDFFCAB
:01112B0022A1
:08112C007F027EDBDEFEDFFC2A
:011134002298
:0E10640000007F037E487DA1DDFEDEFCDFFA8A
:01107200225B
:0611800000007F03DFFE0A
:011186002246
:0D0C5D00015B00025E0000015C00015D0013
:03002300020B5E6F
:070B5E00C0E0C0D075D00813
:100B6500309846C298AF99C3E55F9414E55E94004A
:100B75004006755E00755F00BF3B09755E00755FD9
:100B850000755C01E55C600E055FE55F7002055E62
:100B9500142474F8A60FBF0D10E55C600C755D019B
:100BA500755C00755E00755F00309905C299755BCF
:010BB500003F
:050BB600D0D0D0E032B8
:0A10CF00E55B70FC755B018F992250
:100C88008B1C8A1D891EAB1CAA1DA91E120460603C
:100C980013051EE51E7002051D14F9120460FF12EB
:100CA80010CF80E2AB1C051EE51EAA1D7002051DB3
:090CB80014F9120460FF0210CFD0
:0A0DCD008B178A1889198C1A8D1BE8
:100DD700E4FDFCC3ED951BEC951A5018AB17AA1848
:100DE700A9198D828C83120479FF1210CF0DBD00D3
:040DF700010C80DF8C
:010DFB0022D5
:100FC000E55D601B7B007A0079741205187E007F56
:100FD000147D007B007A0079741204ECE4F55D2244
:100F080041542B43495053544152543D2254435069
:100F1800222C223139322E3136382E33312E3934C3
:090F2800222C383038300D0A008B
:0D0C6A0001650002670000016900016600DD
:03004300020A9816
:070A9800C0E0C0D075D008DA
:100A9F00E59A30E047539AFEAF9BC3E568940FE5A4
:100AAF006794004006756700756800BF3B0975675E
:100ABF0000756800756901E569600E0568E5687085
:100ACF00020567142488F8A60FBF0D10E569600CA6
:100ADF00756601756900756700756800E59A30E104
:070AEF0006539AFD75650036
:050AF600D0D0D0E03279
:0A10D900E56570FC7565018F9B2230
:10008E008B218A228923AB21AA22A9231204606024
:10009E00130523E5237002052214F9120460FF12E2
:0500AE0010D980E222E0
:0A0DFC008B608A6189628C638D644C
:100E0600E4FDFCC3ED9564EC95635018AB60AA61F4
:100E1600A9628D828C83120479FF1210D90DBD0050
:040E2600010C80DF5C
:010E2A0022A5
:100FE000E566601B7B007A0079881205187E007F19
:100FF0000F7D007B007A0079881204ECE4F566220C
:091135007BFF7A0F790802008E9D
:0D0C7700016A00026C0000016E00016B00BC
:03008B00020AFB6B
:070AFB00C0E0C0D075D00877
:100B0200E5AC30E04753ACFEAFADC3E56D9414E500
:100B12006C94004006756C00756D00BF3B09756CE6
:100B220000756D00756E01E56E600E056DE56D7008
:100B320002056C142497F8A60FBF0D10E56E600C29
:100B4200756B01756E00756C00756D00E5AC30E17A
:070B52000653ACFD756A00BB
:050B5900D0D0D0E03215
:0A10E300E56A70FC756A018FAD220A
:100F58008B6F8A708971AB6FAA70A9711204606077
:100F6800130571E5717002057014F9120460FF121F
:050F780010E380E222FD
:0A0E2B008B3D8A3E893F8C408D41CB
:100E3500E4FDFCC3ED9541EC95405018AB3DAA3E51
:100E4500A93F8D828C83120479FF1210E30DBD003A
:040E5500010C80DF2D
:010E59002276
:10100000E56B601B7B007A0079971205187E007FE4
:101010000F7D007B007A0079971204ECE4F56B22D7
:09113E00120FC0120FE0021000B4
:100518008B218A228923120460643B6003020691BE
:10052800900001120479644A6003020606900002F2
:1005380012047964537025900003120479B40104FD
:10054800E4FF8015AB21AA22A923900003120479A5
:10055800640260030206917F0102000EAB21AA2209
:10056800A9239000021204796454702590000312A4
:100578000479B40104E4FF8015AB21AA22A92390D1
:100588000003120479640260030206917F010211DC
:1005980047AB21AA22A9239000021204796455705E
:1005A80025900003120479B40104E4FF8015AB21FF
:1005B800AA22A923900003120479640260030206A8
:1005C800917F01021150AB21AA22A92390000212A7
:1005D800047964566003020691900003120479B40A
:1005E8000104E4FF8015AB21AA22A923900003127D
:1005F8000479640260030206917F01021159AB215C
:10060800AA22A923900001120479645A706090000C
:1006180002120479B45B08E4FF12118702109EAB42
:1006280021AA22A923900002120479B45C08E4FFED
:10063800121187021162AB21AA22A923900002128B
:100648000479B45D15E4FF121187AB21AA22A9230E
:10065800900003120479FF020E87AB21AA22A92376
:10066800900002120479B45E207F01021187AB2149
:10067800AA22A923900001120479FF64CA600AEF34
:0A068800B4DD0612000375C76022FE
:10000E00EF7008D283121046D28422C28412104698
:03001E00C2832278
:09114700EF7003D28222C2822261
:09115000EF7003D28122C281225A
:09115900EF7003D28022C2802253
:08000300D287121055C28722BA
:0B10C400E4F5BDF5BE75BCC00210468F
:030F7D00E4FBFA98
:100F8000E4F5BDF5BEEF44C8F5BC00000000E5BCCB
:0E0F900030E4FB53BCEFAFBDEFFEADBEEDFF96
:010F9E002230
:100D32007F03120F7D7F03120F80EF253EF53EEEFB
:100D4200353DF53D0BBB00010AEB64104A70E6AE7F
:100D52003DE53E7804088005CEC313CE13D8F9FFD3
:040D62008E3DF53E8F
:010D6600226A
:100D67007F04120F7D7F04120F80EF253EF53EEEC4
:100D7700353DF53D0BBB00010AEB64104A70E6AE4A
:100D87003DE53E7804088005CEC313CE13D8F9FF9E
:040D97008E3DF53E5A
:010D9B002235
:10004600E4FBFA7F02120F807F02120F807F0212FA
:100056000F80EF253EF53EEE353DF53D0BBB00012D
:100066000AEB64404A70E6AE3DE53E780608800538
:0C007600CEC313CE13D8F9FF8E3DF53E2B
:01008200225B
:100CFA00E4FBFA7F05120F807F05120F80EF253E75
:100D0A00F53EEE353DF53D0BBB00010AEB64104A9A
:100D1A0070E6AE3DE53E7804088005CEC313CE13D7
:070D2A00D8F9FF8E3DF53EF4
:010D3100229F
:0F107300D2C4121179C2C4121055D2C402111A7C
:100CC100E4F546F54575479020C407AF471547EF52
:100CD10070F6121123E54625E0F54630C4020546BB
:100CE10075479030C407AF471547EF70F60545E5E6
:080CF10045C3940840CFAF4653
:010CF90022D8
:060A2C008B3D8A3E893F6C
:100A320012107320C45F12112C30C45912112C12DF
:100A42000CC18F43120CC18F44120CC18F41120C86
:100A5200C18F42120CC18F40121064D2C4E54325EB
:100A620044FFE433FE7C00EF2541FFEC3EFEEF2520
:100A720042FFEC3EFEEF65407001EE7018AD43EDB3
:100A8200FCE544FDAF41EFFEE542FFE4853F828590
:050A92003E831204EA9E
:010A9700223C
:0F108200D28612116BC2861210F6D2860210FFB0
:10002600E4F572F573C28612116BD286121172A2B2
:08003600869200121108A200DD
:01003E00229F
:100E5A00E4F53EF53F753E08C286121180E53FC3B0
:100E6A0013F53FD28612116B308603433F8012116D
:0C0E7A0008153EE53ED3940050DEAF3F6B
:010E86002249
:020EB4008F3E6F
:100EB600E4F53F753F08C286121180E53E1392861F
:100EC600121108D286E53EC313F53E12116B153F8B
:070ED600E53FD3940050DF5B
:010EDD0022F2
:101036001210821210F67FCC120EB47F44020EB448
:100EDE001210827FCC120EB47F44120EB412108206
:100EEE007FCC120EB47FBE120EB4120E5A8F3D126C
:090EFE000E5AEFFEE53DFDEDFF8B
:010F070022C7
:030C8400011F014C
:100F310043BA8075F10290FFF27408F090FFF074EB
:100F410040F0A3E4F090FF10F0A3F0A3740AF0A323
:070F5100E4F0A37408F02294
:0D109E0075F50243F54043F58053BA7F22FB
:09116200E4F5F553BA7FD2C52271
:100D9C007DA37C00E51F6028E5F5700975F502431D
:100DAC00F54043F580EFD3944B40027F4B43BA8020
:100DBC007E001204A690FF12EEF0A3EFF053BA7F60
:010DCC002204
:100E87007DA37C00E5F5700975F50243F54043F550
:100E970080EFD3944B40027F4B43BA807E0012040D
:0C0EA700A690FF12EEF0A3EFF053BA7F0C
:010EB300221C
:0300B3000210AB8D
:0D10AB00C0E0E5F630E60353F6BFD0E032BA
:031187008F1F2295
:1000B6000203FEE86480F8E933E83360110460F077
:1000C600ED33EC337009E8FCE9FDEAFEEBFF2204B0
:1000D60060DED3EB9FEA9EE99DE8C2E78CF0C2F7AB
:1000E60095F0400CE8CCF8E9CDF9EACEFAEBCFFB77
:1000F6001203C985D0F05804700320D5B3E8047004
:10010600075002B2D502040892D5EC0460F7E4CC9D
:10011600C0E0C398F8603B94186008400DD0E0FB3F
:100126000203E0E4FBFAC9FC8028E830E406E4C9EF
:10013600FBE4CAFCE830E305E4C9CACBFCE8540793
:100146006010F8C3E913F9EA13FAEB13FBEC13FC9E
:10015600D8F130F52FC3E49CFCEF9BFFEE9AFEED41
:1001660099FDD0E0FBEF4E4D4C701222DB030204EA
:1001760005EC2CFCEF33FFEE33FEED33FDED30E7FF
:10018600EB0203E0EF2BFFEE3AFEED39FDD0E0FB8C
:1001960050130BBB0003020408ED13FDEE13FEEF34
:0801A60013FFEC13FC0203E05F
:1001AE00EC4D6011E8497017ED33EC3304600DE44B
:1001BE00FCFFFEFD22E933E8330470F80203FE1261
:1001CE0003C958046009E4CC248150062850090262
:1001DE000408284003020405C0E0EB4A7044B980CD
:1001EE0006D0E0FB0203F4EF4E701CBD8008EBFF5F
:1001FE00EAFEE9FD80EBE98DF0A4FEE5F002029740
:10020E00E9CDF9EAFEEBFFEF89F0A4FCE5F0CE892B
:10021E00F0A42EFFE435F0CD89F0A42DFEE435F0E8
:10022E008067EF4E7005BD80D780C3EF8BF0A4AC16
:10023E00F0EE8BF0A42CFCE435F0F8EF8AF0A42C51
:10024E00E5F038FCE433CB8DF0A42CFCE5F03BF864
:10025E00EE8AF0A42CFCE5F038F8E433CF89F0A454
:10026E002CFCE5F038CF3400CE89F0A42FFFE5F05A
:10027E003EFEE433C98DF0A42EFEE5F039CD8AF0B2
:10028E00A42FFFE5F03EFEE43DFD33D0E0FB50072A
:10029E000BBB000F020408EC2CFCEF33FFEE33FE19
:0602AE00ED33FD0203E048
:1002B400020408EC5D046005E8590470030203FEBF
:1002C4001203C9580460F6EC4860F2EC7004FDFEB9
:1002D400FF22C860DB2481C85009C398600250061D
:1002E4000204059850CAF582E9294B4A7005AB828D
:1002F4000203F475F0007C1A7880C3EF9BEE9AED4C
:1003040099400DC3EF9BFFEE9AFEED99FDE842F094
:10031400DC23ACF0D0E0FFD0E0FED0E0FDAB8220E7
:10032400E7101BEB60BAEC2CFCEF33FFEE33FEED71
:1003340033FD0203E0E803F830E705C0F075F00090
:10034400EF2FFFEE33FEED33FD40B830E7C280AA55
:1003540075F020800E75F010800575F0087D007E24
:10036400007F003392D530D5031204B8EC3340102B
:10037400EF33FFEE33FEED33FDEC33FCD5F0ED222D
:0E038400E5F0247EA2D513CC92E7CDCEFF2269
:10039200EDD2E7CD33EC3392D524814006E4FFFE63
:1003A200FDFC22FCE4CFCECDCC24E0501174FF80C2
:1003B200EDC3CC13CCCD13CDCE13CECF13CF04705F
:0703C200F030D5DE0204B8A3
:1007D4003E9248DA3ECCCCCD3F2AAAAB4000000082
:1007E4003F8000003F9837F03FB504F33FD744FC07
:1007F4003E3172173EB172173F0515913EDE5BD94B
:10080400D2018002C201EDD2E7F8CD33EC3304709B
:100814000BBD800592D50204080203FE40FBD314ED
:1008240060F2F5F07C3FEE7A00C39496C8948B4056
:10083400230AC89469C8941A401A0AC89468C894C8
:100844001F40110AC8945AC89425400805F07A003C
:10085400CDC2E7CDC0F08C578D588E598F5AEA23FC
:1008640023C0E024E4F582E43407F5831204D612AD
:1008740000BDECC0E0EDC0E0EEC0E0EFC0E012046B
:10088400C6A857A958AA59AB5A1200B9D0E0FBD050
:10089400E0FAD0E0F9D0E0B2E7F81202B78C578D55
:1008A400588E598F5A9007D47403120413A857A969
:1008B40058AA59AB5A1201AED0E0600F24F0F58269
:1008C400E43407F5831204D61200BD8C578D588E7C
:1008D400598F5AD0E0C3947FFDE49400FC1203596D
:1008E4007B187A727931783F1201AEA857A958AAB9
:1008F40059AB5A1200BD30010B7BD97A5B79DE7893
:050904003E1201AE22CD
:1003C900E9D2E7C933E833F892D5EDD2E7CD33EC7A
:0703D90033FC5002B2D522F3
:1003E000EC30E7100FBF000C0EBE00080DBD00047E
:1003F0000BEB6014A2D5EB13FCED92E7FD2274FF2A
:10040000FCFDFEFF22E480F8A2D574FF13FC7D8082
:03041000E480EF96
:10041300C0E0EFFBEEFAEDF9ECF81201AED0E0F537
:10042300F0EFFBEEFAEDF9ECF81204C6A3A3A3A3D5
:10043300E8C0E0E9C0E0EAC0E0EBC0E0C0F01201D0
:10044300AE1204D6A3A3A3A31200BDD0F0D0E0FB49
:0D045300D0E0FAD0E0F9D0E0F8D5F0D422E6
:1009AC00020C06E493A3F8E493A34003F68001F24F
:1009BC0008DFF48029E493A3F85407240CC8C3334C
:1009CC00C4540F4420C8834004F456800146F6DF1B
:1009DC00E4800B0102040810204080900C4EE47E51
:1009EC00019360BCA3FF543F30E509541FFEE49310
:1009FC00A360010ECF54C025E060A840B8E493A3D7
:100A0C00FAE493A3F8E493A3C8C582C8CAC583CA01
:100A1C00F0A3C8C582C8CAC583CADFE9DEE780BEB9
:010C8700006C
:10046000BB010689828A83E0225002E722BBFE029A
:09047000E32289828A83E49322CD
:10047900BB010CE58229F582E5833AF583E0225038
:1004890006E92582F8E622BBFE06E92582F8E22282
:0D049900E58229F582E5833AF583E493229C
:1004A600EF8DF0A4A8F0CF8CF0A428CE8DF0A42E6A
:0204B600FE2224
:0E04B800C3E49FFFE49EFEE49DFDE49CFC2255
:1004C600E493FC740193FD740293FE740393FF227C
:1004D600E493F8740193F9740293FA740393FB227C
:0604E6008A838982E473A1
:1004EC00EF4E6012EF60010EEDBB010B89828A8327
:1004FC00F0A3DFFCDEFA2289F05007F709DFFCA934
:0C050C00F022BBFEFCF309DFFCA9F0228A
:00000001FF
